:100000000C9484010C94A1010C94A1010C94A10105
:100010000C94A1010C94A1010C94A1010C94A101D8
:100020000C94A1010C94A1010C94A1010C94A101C8
:100030000C94A1010C94A1010C94A1010C94A101B8
:100040000C94A1010C94A1010C94A1010C94A101A8
:100050000C94A1010C94A1010C94A1010C94A10198
:100060000C94A1010C94A101BC5F9C60A46184620A
:10007000B6639664B0659F66B567FFFF0000000039
:1000800000000000002F000000000700070000141F
:100090007F147F1400242A7F2A120062640813232D
:1000A00000364955225000000503000000001C22C4
:1000B0004100000041221C000014083E0814000802
:1000C000083E0808000000A06000000808080808B2
:1000D000000060600000002010080402003E51494A
:1000E000453E0000427F40000042615149460021E8
:1000F00041454B31001814127F1000274545453902
:10010000003C4A494930000171090503003649495C
:10011000493600064949291E000036360000000015
:100120005636000000081422410000141414141460
:100130000000412214080002015109060032495909
:10014000513E007C1211127C007F49494936003E25
:1001500041414122007F4141221C007F49494941E0
:10016000007F09090901003E4149497A007F0808DA
:10017000087F0000417F4100002040413F01007F97
:1001800008142241007F40404040007F020C027F63
:10019000007F0408107F003E4141413E007F090975
:1001A0000906003E4151215E007F0919294600469B
:1001B000494949310001017F0101003F4040403F72
:1001C000001F2040201F003F4038403F00631408BC
:1001D0001463000708700807006151494543000097
:1001E0007F41410000552A552A55000041417F00BA
:1001F00000040201020400404040404000000102AF
:100200000400002054545478007F48444438003897
:100210004444442000384444487F0038545454181F
:1002200000087E0901020018A4A4A47C007F080431
:1002300004780000447D4000004080847D00007F01
:10024000102844000000417F4000007C041804781E
:10025000007C0804047800384444443800FC24241A
:1002600024180018242418FC007C08040408004802
:100270005454542000043F444020003C4040207C23
:10028000001C2040201C003C4030403C0044281012
:100290002844001CA0A0A07C004464544C440000EE
:1002A000087741000000006300000000417708006B
:1002B000000804080804003A4040207A003D40400D
:1002C000403D002154545479007D1211127D0039B3
:1002D00044444439003D4242423D000205020000D0
:1002E000007E01495573007C1010081CAE2000B040
:1002F000C8001040813FA1A6A83FA4D300D5F0D9E3
:1003000022DA12DB208D140011241FBECFEFD8E0BB
:10031000DEBFCDBF11E0A0E0B1E0E4E7F9E002C04C
:1003200005900D92A631B107D9F721E0A6E1B1E021
:1003300001C01D92A931B207E1F70E9499040C9403
:10034000B8040C9400001092B90080E28093B800C9
:1003500084E08093BC00089594EA9093BC0020EA66
:1003600030E0ECEBF0E009C02150310931F480912C
:100370001801816080931801089590819923A4F752
:100380008093BB0084E88093BC0080EA90E0ECEBB3
:10039000F0E008C0019731F48091180182608093E9
:1003A0001801089520812223ACF7089584E98093F1
:1003B000BC0008958093BB0084E88093BC0080EA71
:1003C00090E0ECEBF0E008C0019731F48091180167
:1003D000846080931801089520812223ACF708954A
:1003E000EF92FF920F931F93CF93DF937C01162F11
:1003F00088E70E94AC0180E00E94DA01112371F0CD
:10040000E7011150012F10E00F5F1F4F0E0D1F1D50
:1004100089910E94DA01C017D107D1F70E94D60155
:10042000DF91CF911F910F91FF90EF900895EF9280
:10043000FF920F931F93CF93DF937C018B0188E78B
:100440000E94AC0180E40E94DA010115110549F017
:10045000E7010E0D1F1D89910E94DA01C017D10717
:10046000D1F70E94D601DF91CF911F910F91FF909C
:10047000EF900895CF93DF9300D000D0CDB7DEB7D3
:10048000813890F4683080F4E6E1F1E080836183A4
:100490006055698391E29A838B838FE78C8364E054
:1004A000CE0101960E94F0010F900F900F900F90D7
:1004B000DF91CF910895982F990F890F880F0E948F
:1004C0003A02089560E080E00E945B0208951F9365
:1004D000CF93DF93CDB7DEB7C058D1090FB6F894EC
:1004E000DEBF0FBECDBFFE01319680E8DF011D9259
:1004F0008A95E9F710E0612F80E00E945B0260E8D6
:1005000070E0CE0101960E9417021F5F183099F724
:100510000E946202C058DF4F0FB6F894DEBF0FBED4
:10052000CDBFDF91CF911F9108951F93CF93DF939C
:10053000CDB7DEB76C970FB6F894DEBF0FBECDBF58
:10054000182F0E94A301ECEEF2E0DE0111969E014D
:10055000245E3F4F84918D933196A217B307D1F754
:100560001C8F6CE1CE0101960E94F0010E9467028F
:100570006C960FB6F894DEBF0FBECDBFDF91CF9162
:100580001F910895CF93DF9300D0CDB7DEB791E8E8
:1005900099838A8362E0CE0101960E94F0010F9058
:1005A0000F90DF91CF9108956F927F928F929F92DB
:1005B000AF92BF92CF92DF92EF92FF920F931F9371
:1005C000CF93DF93CDB7DEB76C970FB6F894DEBF4D
:1005D0000FBECDBF893009F118F4883039F053C00F
:1005E0008A30F1F18D3009F448C04DC006E111E0C8
:1005F000D8018C919091000111966C91891B0E94F9
:100600005B0280E20E94D402F80180819091000197
:100610006181891B0E945B0265C1809116019091E6
:100620000001292F30E0220F331F220F331FB901A1
:10063000680F711D45E150E0DA01A21BB30B6A1788
:100640007B0740F4990F990F60911701890F0E9461
:100650005B0248C16091170185E10E945B0242C1C3
:1006600080911701873008F03DC160910001680F4B
:10067000809116010E945B0235C16091170180E0F4
:100680000E945B022FC1A0911601AA3708F02AC16F
:10069000803208F427C1805249E650E0FA01949173
:1006A000891768F194919F3F09F41CC1E8E6F0E0D6
:1006B000249190E030E0205231092817390769F081
:1006C00060E010C0F901EE0FFF1FE859FF4FE49101
:1006D000F0E0B097E817F90729F4FA0184918F3F09
:1006E00071F400C16F5F262F30E0A901440F551F40
:1006F00047595F4FFA0174917F3F21F7F3C0909102
:100700000001923009F0C7C02A2F30E0245F3F4F2C
:100710002138310508F0E6C05E01FDE0AF0EB11CE6
:1007200090E0FC01EE0FFF1FE80FF91FEE0FFF1F17
:10073000CF0184589F4F3C014E0199E1890E911CD5
:100740006501EE24E394F12C8601D6011D921C92E2
:10075000F301A49121E030E080E090E0B0E0AD0151
:10076000082E02C0559547950A94E2F740FF1BC03A
:10077000F80160817181A701022E02C0440F551F4C
:100780000A94E2F7642B752BAC01440F551FF70157
:1007900002C0EE0FFF1F4A95E2F7AF01462B572B21
:1007A000F8015183408301962E5F3F4F88309105B9
:1007B000B1F6F2E0CF0ED11C5FEF651A750A8C140A
:1007C0009D0409F0C1CFF50120E030E0C901880F98
:1007D000991F40813296A1E0B0E0AC0FBD1FA80F79
:1007E000B91F4C93A2E0B0E0AC0FBD1FA80FB91F1A
:1007F0004C932F5F3F4F2630310541F76CE070E09E
:10080000CE0101960E941702E6E1F1E081818F544A
:10081000898F81E28A8F80818B8F8FE78C8F64E054
:10082000CE0149960E94F00120E030E0C901880F16
:10083000991FD50111964C91B2E0AB0EB11CE1E0CD
:10084000F0E0EC0FFD1FE80FF91F4083E2E0F0E05D
:10085000EC0FFD1FE80FF91F40832F5F3F4F26303D
:10086000310521F76CE070E0CE0101960E9417027D
:1008700006E111E0F80181818055898F8081845FD4
:100880008B8F64E0CE0149960E94F001D8018C91D3
:10089000845F8C9327C02A2F30E02A5F3F4F213896
:1008A000310500F590E0FC01EE0FFF1FE80FF91F86
:1008B000EE0FFF1FE458FF4FDE0111969E01295FE6
:1008C0003F4F84918D933196A217B307D1F766E01D
:1008D00070E0CE0101960E941702E6E1F1E080810E
:1008E0008A5F80836C960FB6F894DEBF0FBECDBFD3
:1008F000DF91CF911F910F91FF90EF90DF90CF90FC
:10090000BF90AF909F908F907F906F90089580934D
:1009100000010895CF93DF93EC018881882331F0A3
:1009200021960E94D40289918111FBCFDF91CF9152
:1009300008958FEA0E9495020E94670280E00E945B
:10094000C20261E084E00E945B0281E091E00E94CB
:100950008A0482E00E94870464E080E00E945B02D7
:100960008DE091E00E948A0481E00E948704FFCF1D
:04097000F894FFCF29
:10097400014E6F726D616C2053697A650020204FBF
:060984004241494420003D
:00000001FF
